
program.debug.elf:     file format elf32-littleriscv


Disassembly of section .text:

00000000 <loop-0xc>:
   0:	00000313          	addi	x6,x0,0
   4:	00001137          	lui	x2,0x1
   8:	00a00f93          	addi	x31,x0,10

0000000c <loop>:
   c:	03f301b3          	mul	x3,x6,x31
  10:	00312023          	sw	x3,0(x2) # 1000 <data>
  14:	00012203          	lw	x4,0(x2)
  18:	10412023          	sw	x4,256(x2)
  1c:	00810113          	addi	x2,x2,8
  20:	00130313          	addi	x6,x6,1
  24:	01032293          	slti	x5,x6,16
  28:	fe0292e3          	bne	x5,x0,c <loop>
  2c:	10500073          	wfi
	...

